:100000000C9434000C9451000C9451000C94510049
:100010000C9451000C9451000C9451000C9451001C
:100020000C9451000C9451000C9451000C9451000C
:100030000C9451000C9451000C9451000C945100FC
:100040000C9451000C9451000C9451000C945100EC
:100050000C9451000C9451000C9451000C945100DC
:100060000C9451000C94510011241FBECFEFD8E026
:10007000DEBFCDBF11E0A0E0B1E0E4E9FEE002C0E8
:1000800005900D92A23AB107D9F721E0A2EAB1E0BA
:1000900001C01D92A83AB207E1F70E9434020C9405
:1000A00048070C9400004F925F926F927F92AF923C
:1000B000BF92CF92DF92EF92FF920F931F93CF9355
:1000C000DF93CDB7DEB72C970FB6F894DEBF0FBE27
:1000D000CDBF5C01C982DA82EB82FC820D831E8374
:1000E0002F83388749875A876B877C8729A13AA154
:1000F0004BA15CA16D817E818F8198850E947302E6
:100100002B013C012DA13EA14FA158A569857A85FF
:100110008B859C850E9473026B017C012D8D3E8D29
:100120004F8D58A169817A818B819C810E947302D5
:10013000F501608371838283938344825582668252
:100140007782C086D186E286F386C5012C960FB6EB
:10015000F894DEBF0FBECDBFDF91CF911F910F91FD
:10016000FF90EF90DF90CF90BF90AF907F906F9017
:100170005F904F9008954F925F926F927F928F920F
:100180009F92AF92BF92CF92DF92EF92FF920F9326
:100190001F93CF93DF93CDB7DEB72C970FB6F894AC
:1001A000DEBF0FBECDBFE982FA820B831C832D8395
:1001B0003E834F83588769877A878B879C876981BD
:1001C0007A818B819C818D809E80AF80B884C98428
:1001D000DA84EB84FC849B01AC010E94A2032B0116
:1001E0003C01A5019401C501B4010E94A2039B0139
:1001F000AC01C301B2010E9473024B015C01A70173
:100200009601C701B6010E94A2039B01AC01C50182
:10021000B4010E9473022C960FB6F894DEBF0FBE95
:10022000CDBFDF91CF911F910F91FF90EF90DF90A5
:10023000CF90BF90AF909F908F907F906F905F9086
:100240004F900C9415042F923F924F925F926F92B1
:100250007F928F929F92AF92BF92CF92DF92EF9256
:10026000FF920F931F93CF93DF93CDB7DEB76897BD
:100270000FB6F894DEBF0FBECDBF1C01C982DA8273
:10028000EB82FC820D831E832F83388749875A8730
:100290006B877C8749805A806B807C808D809E80B4
:1002A000AF80B88489859A85AB85BC858D879E870C
:1002B000AF87B88BA3019201C301B2010E94A203D0
:1002C0006B017C01A5019401C501B4010E94A20348
:1002D000698B7A8B8B8B9C8B2D853E854F855889BE
:1002E000CA01B9010E94A2036D8B7E8B8F8B988F00
:1002F00029893A894B895C89C701B6010E9473023A
:100300002D893E894F89588D0E9473020E941504E1
:100310006B017C019B01AC01C301B2010E94DF02B1
:10032000D1016D937D938D939C931397A7019601B3
:10033000C501B4010E94DF02F101648375838683E5
:100340009783A70196016D857E858F8598890E9488
:10035000DF02D10118966D937D938D939C931B972B
:10036000C10168960FB6F894DEBF0FBECDBFDF9116
:10037000CF911F910F91FF90EF90DF90CF90BF90A2
:10038000AF909F908F907F906F905F904F903F9035
:100390002F9008952F923F924F925F926F927F928B
:1003A0008F929F92AF92BF92CF92DF92EF92FF9285
:1003B0000F931F93CF93DF93CDB7DEB72C970FB674
:1003C000F894DEBF0FBECDBF3C01C982DA82EB825A
:1003D000FC820D831E832F83388749875A876B875A
:1003E0007C872D813E814F815885C501B4010E94D3
:1003F000A2031B012C0129853A854B855C85C5012B
:10040000B4010E94A2036B017C01A50194016981E2
:100410007A818B819C810E94A203F30160837183A6
:10042000828393832482358246825782C086D18616
:10043000E286F386C3012C960FB6F894DEBF0FBE9A
:10044000CDBFDF91CF911F910F91FF90EF90DF9083
:10045000CF90BF90AF909F908F907F906F905F9064
:100460004F903F902F900895CF931F921F921F920D
:100470001F928EE38F9381EA8F9388EE8F939BE98F
:100480009F93CFE3CF9392E79F939CED9F938F939E
:1004900080E091E09F938F930E946A041F921F92C5
:1004A0001F921F92CF938AEC8F9392E69F9392ECC8
:1004B0009F9390E49F9397E99F938F9381E18F930C
:1004C0008FE391E09F938F930E946A048DB79EB74C
:1004D0004C960FB6F8949EBF0FBE8DBF80E090E0A3
:1004E000CF9108955058BB27AA270E948A020C94E6
:1004F00068030E945A0338F00E94610320F039F427
:100500009F3F19F426F40C9457030EF4E095E7FB93
:100510000C945103E92F0E94790358F3BA1762072C
:1005200073078407950720F079F4A6F50C949B03D4
:100530000EF4E0950B2EBA2FA02D0B01B9019001FE
:100540000C01CA01A0011124FF27591B99F0593F42
:1005500050F4503E68F11A16F040A22F232F342F8A
:100560004427585FF3CF469537952795A795F040D8
:100570005395C9F77EF41F16BA0B620B730B840BED
:10058000BAF09150A1F0FF0FBB1F661F771F881FA5
:10059000C2F70EC0BA0F621F731F841F48F48795FD
:1005A00077956795B795F7959E3F08F0B0CF9395EF
:1005B000880F08F09927EE0F9795879508950E9468
:1005C000F3020C9468030E94610358F00E945A03DE
:1005D00040F029F45F3F29F00C94510351110C9421
:1005E0009C030C9457030E94790368F39923B1F399
:1005F000552391F3951B550BBB27AA276217730749
:10060000840738F09F5F5F4F220F331F441FAA1FDC
:10061000A9F335D00E2E3AF0E0E832D09150504098
:10062000E695001CCAF72BD0FE2F29D0660F771F46
:10063000881FBB1F261737074807AB07B0E809F02C
:10064000BB0B802DBF01FF2793585F4F3AF09E3FB1
:10065000510578F00C9451030C949C035F3FE4F334
:10066000983ED4F3869577956795B795F7959F5FF4
:10067000C9F7880F911D9695879597F90895E1E040
:10068000660F771F881FBB1F621773078407BA079F
:1006900020F0621B730B840BBA0BEE1F88F7E095FA
:1006A000089597F99F6780E870E060E008959FEFF4
:1006B00080EC089500240A941616170618060906F9
:1006C000089500240A9412161306140605060895C8
:1006D000092E0394000C11F4882352F0BB0F40F450
:1006E000BF2B11F460FF04C06F5F7F4F8F4F9F4F90
:1006F000089557FD9058440F551F59F05F3F71F012
:100700004795880F97FB991F61F09F3F79F0879578
:100710000895121613061406551FF2CF4695F1DF01
:1007200008C0161617061806991FF1CF8695710591
:10073000610508940895E894BB2766277727CB01C5
:1007400097F908950E94B5030C9468030E945A0318
:1007500038F00E94610320F0952311F00C945103AE
:100760000C94570311240C949C030E94790370F39A
:10077000959FC1F3950F50E0551F629FF001729F46
:10078000BB27F00DB11D639FAA27F00DB11DAA1F55
:10079000649F6627B00DA11D661F829F2227B00DA2
:1007A000A11D621F739FB00DA11D621F839FA00D2D
:1007B000611D221F749F3327A00D611D231F849F7D
:1007C000600D211D822F762F6A2F11249F575040D4
:1007D0009AF0F1F088234AF0EE0FFF1FBB1F661F4F
:1007E000771F881F91505040A9F79E3F510580F018
:1007F0000C9451030C949C035F3FE4F3983ED4F3B4
:10080000869577956795B795F795E7959F5FC1F7BB
:10081000FE2B880F911D9695879597F9089519F4E9
:1008200016F40C9457030C9455040E948103B8F3FA
:100830009923C9F3B6F39F57550B87FF0E946304B2
:100840000024A0E640EA900180585695979528F438
:10085000805C660F771F881F20F026173707480730
:1008600030F4621B730B840B202931294A2BA69587
:1008700017940794202531254A2758F7660F771FCC
:10088000881F20F026173707480730F4620B730BD8
:10089000840B200D311D411DA09581F7B901842FD6
:1008A0009158880F9695879508959F3F31F0915004
:1008B00020F4879577956795B795880F911D969544
:1008C000879597F9089591505040660F771F881FBC
:1008D000D2F70895A0E0B0E0E0E7F4E00C9421073F
:1008E000AE014B5F5F4FFA0161917191AF01809151
:1008F000A4019091A5010E948004E2E00C943D07C0
:10090000ABE0B0E0E6E8F4E00C9411076C017B0189
:100910008A01FC0117821682838181FFCCC1CE013E
:1009200001963C01F6019381F70193FD859193FFB8
:1009300081917F01882309F4BAC1853239F493FD8E
:10094000859193FF81917F01853229F4B60190E072
:100950000E947706E7CF912C212C312CFFE1F31573
:10096000D8F08B3279F038F4803279F08332A1F408
:10097000232D20611DC08D3261F0803369F4232D59
:10098000216016C0832D8260382EE32DE4603E2E58
:100990002AC0F32DF8601DC037FC2DC020ED280FB4
:1009A0002A3040F08E32B9F436FC81C1232D206408
:1009B000322E19C036FE06C08AE0989E200D112402
:1009C000922E11C0EAE02E9E200D1124222EF32D2E
:1009D000F0623F2E08C08C3621F4832D8068382EBB
:1009E00002C0883641F4F70193FD859193FF819110
:1009F0007F018111B3CF982F9F7D9554933028F4B8
:100A00000C5F1F4F9FE399830DC0833631F083370E
:100A100071F0833509F059C021C0F80180818983C4
:100A20000E5F1F4F88248394912C530113C028011B
:100A3000F2E04F0E511CF801A080B18036FE03C0D9
:100A4000692D70E002C06FEF7FEFC5010E946C0658
:100A50004C018201F32DFF773F2E16C0280122E0C2
:100A6000420E511CF801A080B18036FE03C0692DF2
:100A700070E002C06FEF7FEFC5010E9461064C017C
:100A8000F32DF0683F2E820133FC1BC0822D90E0D5
:100A900088169906B0F4B60180E290E00E947706CD
:100AA0002A94F4CFF50137FC859137FE81915F01DF
:100AB000B60190E00E94770621102A9421E0821A64
:100AC00091088114910471F7E8C0843611F08936D9
:100AD00041F5F80137FE07C0608171818281938101
:100AE0000C5F1F4F08C060817181072E000C880BBE
:100AF000990B0E5F1F4FF32DFF763F2E97FF09C016
:100B000090958095709561957F4F8F4F9F4FF068BE
:100B10003F2E2AE030E0A3010E94B306882E8618FB
:100B200045C0853731F4232D2F7EB22E2AE030E0E8
:100B300025C0932D997FB92E8F36C1F018F48835D2
:100B400079F0B5C0803719F0883721F0B0C0E92FAF
:100B5000E061BE2EB4FE0DC0FB2DF460BF2E09C0B7
:100B600034FE0AC0292F2660B22E06C028E030E0ED
:100B700005C020E130E002C020E132E0F801B7FE1C
:100B800007C060817181828193810C5F1F4F06C015
:100B90006081718180E090E00E5F1F4FA3010E9491
:100BA000B306882E8618FB2DFF773F2E36FE0DC02C
:100BB000232D2E7FA22E891458F434FE0BC032FC54
:100BC00009C0832D8E7EA82E05C0B82CA32C03C08F
:100BD000B82C01C0B92CA4FE0FC0FE01E80DF11D18
:100BE0008081803321F49A2D997EA92E09C0A2FE1E
:100BF00006C0B394B39404C08A2D867809F0B394E8
:100C0000A3FC11C0A0FE06C0B21488F4280C922CDC
:100C10009B180EC0B21460F4B60180E290E00E940E
:100C20007706B394F7CFB21418F42B1802C0982C9F
:100C3000212CA4FE10C0B60180E390E00E9477064C
:100C4000A2FE17C0A1FC03C088E790E002C088E5BF
:100C500090E0B6010CC08A2D867859F0A1FE02C042
:100C60008BE201C080E2A7FC8DE2B60190E00E9419
:100C70007706891438F4B60180E390E00E94770685
:100C80009A94F7CF8A94F301E80DF11D8081B601A3
:100C900090E00E9477068110F5CF222009F442CE21
:100CA000B60180E290E00E9477062A94F6CFF60122
:100CB0008681978102C08FEF9FEF2B96E2E10C9423
:100CC0002D07FC010590615070400110D8F7809508
:100CD00090958E0F9F1F0895FC0161507040019008
:100CE0000110D8F7809590958E0F9F1F08950F9350
:100CF0001F93CF93DF93FB01238121FD03C08FEF6F
:100D00009FEF2CC022FF16C0468157812481358178
:100D10004217530744F4A081B1819D012F5F3F4FDB
:100D2000318320838C93268137812F5F3F4F378318
:100D3000268314C08B01EC01FB010084F185E02DBA
:100D40000995892BE1F6D80116968D919C911797FC
:100D5000019617969C938E931697CE01DF91CF91B3
:100D60001F910F910895FA01AA27283051F12031DF
:100D700081F1E8946F936E7F6E5F7F4F8F4F9F4F2F
:100D8000AF4FB1E03ED0B4E03CD0670F781F891F71
:100D90009A1FA11D680F791F8A1F911DA11D6A0F3F
:100DA000711D811D911DA11D20D009F468943F91F2
:100DB0002AE0269F11243019305D3193DEF6CF01F1
:100DC0000895462F4770405D4193B3E00FD0C9F7B7
:100DD000F6CF462F4F70405D4A3318F0495D31FD24
:100DE0004052419302D0A9F7EACFB4E0A695979577
:100DF000879577956795BA95C9F70097610571054D
:100E000008959B01AC010A2E069457954795379596
:100E10002795BA95C9F7620F731F841F951FA01DF0
:100E200008952F923F924F925F926F927F928F928E
:100E30009F92AF92BF92CF92DF92EF92FF920F9369
:100E40001F93CF93DF93CDB7DEB7CA1BDB0B0FB673
:100E5000F894DEBF0FBECDBF09942A883988488830
:100E60005F846E847D848C849B84AA84B984C884C6
:100E7000DF80EE80FD800C811B81AA81B981CE0FBD
:100E8000D11D0FB6F894DEBF0FBECDBFED010895A2
:040E9000F894FFCF04
:100E940054686520756E697420766563746F72207A
:100EA4006F662074686520726573756C74616E7406
:100EB40020766563746F722069732028252E32664C
:100EC4002C20252E32662C20252E3266290A005429
:100ED400686520766563746F722077697468206131
:100EE400206D61676E6974756465206F66203520B6
:100EF400756E69747320696E207468652064697204
:100F0400656374696F6E206F662074686520756E02
:100F1400697420766563746F722069732028252EA6
:100F240032662C20252E32662C20252E3266290A84
:020F34000000BB
:00000001FF
